{
  "contractName": "SimpleStorage",
  "abi": [
    {
      "constant": true,
      "inputs": [],
      "name": "tokenId",
      "outputs": [
        {
          "name": "",
          "type": "uint256"
        }
      ],
      "payable": false,
      "stateMutability": "view",
      "type": "function",
      "signature": "0x17d70f7c"
    },
    {
      "constant": true,
      "inputs": [
        {
          "name": "",
          "type": "uint256"
        }
      ],
      "name": "bookAccounts",
      "outputs": [
        {
          "name": "",
          "type": "address"
        }
      ],
      "payable": false,
      "stateMutability": "view",
      "type": "function",
      "signature": "0x1a50a08c"
    },
    {
      "constant": true,
      "inputs": [],
      "name": "myToken",
      "outputs": [
        {
          "name": "",
          "type": "address"
        }
      ],
      "payable": false,
      "stateMutability": "view",
      "type": "function",
      "signature": "0xb8fcf937"
    },
    {
      "constant": true,
      "inputs": [
        {
          "name": "",
          "type": "uint256"
        }
      ],
      "name": "imageAccounts",
      "outputs": [
        {
          "name": "",
          "type": "address"
        }
      ],
      "payable": false,
      "stateMutability": "view",
      "type": "function",
      "signature": "0xd4a987cc"
    },
    {
      "inputs": [
        {
          "name": "_myToken",
          "type": "address"
        }
      ],
      "payable": false,
      "stateMutability": "nonpayable",
      "type": "constructor",
      "signature": "constructor"
    },
    {
      "constant": false,
      "inputs": [],
      "name": "buyOneToken",
      "outputs": [],
      "payable": true,
      "stateMutability": "payable",
      "type": "function",
      "signature": "0x11a862b7"
    },
    {
      "constant": true,
      "inputs": [],
      "name": "accountBalance",
      "outputs": [
        {
          "name": "",
          "type": "uint256"
        }
      ],
      "payable": false,
      "stateMutability": "view",
      "type": "function",
      "signature": "0xb0a1c1c4"
    },
    {
      "constant": true,
      "inputs": [
        {
          "name": "_address",
          "type": "address"
        }
      ],
      "name": "accountBalanceManual",
      "outputs": [
        {
          "name": "",
          "type": "uint256"
        }
      ],
      "payable": false,
      "stateMutability": "view",
      "type": "function",
      "signature": "0x52970980"
    },
    {
      "constant": false,
      "inputs": [
        {
          "name": "_to",
          "type": "address"
        }
      ],
      "name": "giveLike",
      "outputs": [],
      "payable": true,
      "stateMutability": "payable",
      "type": "function",
      "signature": "0xa08b6bfc"
    },
    {
      "constant": false,
      "inputs": [
        {
          "name": "_address",
          "type": "address"
        },
        {
          "name": "_bookHash",
          "type": "string"
        },
        {
          "name": "_bookTitle",
          "type": "string"
        },
        {
          "name": "_contents",
          "type": "string"
        }
      ],
      "name": "addBookReport",
      "outputs": [],
      "payable": false,
      "stateMutability": "nonpayable",
      "type": "function",
      "signature": "0x575daea2"
    },
    {
      "constant": true,
      "inputs": [],
      "name": "getBookAccounts",
      "outputs": [
        {
          "name": "",
          "type": "address[]"
        }
      ],
      "payable": false,
      "stateMutability": "view",
      "type": "function",
      "signature": "0x0813cd76"
    },
    {
      "constant": true,
      "inputs": [
        {
          "name": "_address",
          "type": "address"
        },
        {
          "name": "i",
          "type": "uint256"
        }
      ],
      "name": "getTitle",
      "outputs": [
        {
          "name": "",
          "type": "string"
        }
      ],
      "payable": false,
      "stateMutability": "view",
      "type": "function",
      "signature": "0x5c17dabf"
    },
    {
      "constant": true,
      "inputs": [
        {
          "name": "_address",
          "type": "address"
        },
        {
          "name": "i",
          "type": "uint256"
        }
      ],
      "name": "getContents",
      "outputs": [
        {
          "name": "",
          "type": "string"
        }
      ],
      "payable": false,
      "stateMutability": "view",
      "type": "function",
      "signature": "0xa4552ed8"
    },
    {
      "constant": true,
      "inputs": [
        {
          "name": "_address",
          "type": "address"
        },
        {
          "name": "i",
          "type": "uint256"
        }
      ],
      "name": "getBook",
      "outputs": [
        {
          "name": "",
          "type": "string"
        }
      ],
      "payable": false,
      "stateMutability": "view",
      "type": "function",
      "signature": "0xac40d425"
    },
    {
      "constant": true,
      "inputs": [
        {
          "name": "_address",
          "type": "address"
        }
      ],
      "name": "getLength",
      "outputs": [
        {
          "name": "",
          "type": "uint256"
        }
      ],
      "payable": false,
      "stateMutability": "view",
      "type": "function",
      "signature": "0xfe611a07"
    },
    {
      "constant": false,
      "inputs": [
        {
          "name": "_address",
          "type": "address"
        },
        {
          "name": "_imageHash",
          "type": "string"
        }
      ],
      "name": "setImage",
      "outputs": [],
      "payable": false,
      "stateMutability": "nonpayable",
      "type": "function",
      "signature": "0x7d0b8e59"
    },
    {
      "constant": true,
      "inputs": [],
      "name": "getImages",
      "outputs": [
        {
          "name": "",
          "type": "address[]"
        }
      ],
      "payable": false,
      "stateMutability": "view",
      "type": "function",
      "signature": "0x11498334"
    },
    {
      "constant": true,
      "inputs": [
        {
          "name": "_address",
          "type": "address"
        }
      ],
      "name": "getImage",
      "outputs": [
        {
          "name": "",
          "type": "string"
        }
      ],
      "payable": false,
      "stateMutability": "view",
      "type": "function",
      "signature": "0xc18e36d0"
    },
    {
      "constant": false,
      "inputs": [
        {
          "name": "x",
          "type": "string"
        }
      ],
      "name": "set",
      "outputs": [],
      "payable": false,
      "stateMutability": "nonpayable",
      "type": "function",
      "signature": "0x4ed3885e"
    },
    {
      "constant": true,
      "inputs": [],
      "name": "get",
      "outputs": [
        {
          "name": "",
          "type": "string"
        }
      ],
      "payable": false,
      "stateMutability": "view",
      "type": "function",
      "signature": "0x6d4ce63c"
    },
    {
      "constant": true,
      "inputs": [],
      "name": "getTest",
      "outputs": [
        {
          "name": "",
          "type": "string"
        }
      ],
      "payable": false,
      "stateMutability": "view",
      "type": "function",
      "signature": "0xa8cd0a80"
    }
  ],
  "bytecode": "0x6080604052606060405190810160405280603681526020017f516d5732575169376a36633755674a546172416374703774444e696b4534423281526020017f7158744643664c506473676154512f6361742e6a706700000000000000000000815250600190805190602001906200007892919062000109565b503480156200008657600080fd5b5060405160208062001e5583398101806040526020811015620000a857600080fd5b810190808051906020019092919050505080600460006101000a81548173ffffffffffffffffffffffffffffffffffffffff021916908373ffffffffffffffffffffffffffffffffffffffff160217905550600060058190555050620001b8565b828054600181600116156101000203166002900490600052602060002090601f016020900481019282601f106200014c57805160ff19168380011785556200017d565b828001600101855582156200017d579182015b828111156200017c5782518255916020019190600101906200015f565b5b5090506200018c919062000190565b5090565b620001b591905b80821115620001b157600081600090555060010162000197565b5090565b90565b611c8d80620001c86000396000f3fe608060405260043610610112576000357c0100000000000000000000000000000000000000000000000000000000900463ffffffff1680630813cd7614610117578063114983341461018357806311a862b7146101ef57806317d70f7c146101f95780631a50a08c146102245780634ed3885e1461029f5780635297098014610367578063575daea2146103cc5780635c17dabf146105e25780636d4ce63c146106b65780637d0b8e5914610746578063a08b6bfc1461082e578063a4552ed814610872578063a8cd0a8014610946578063ac40d425146109d6578063b0a1c1c414610aaa578063b8fcf93714610ad5578063c18e36d014610b2c578063d4a987cc14610bf6578063fe611a0714610c71575b600080fd5b34801561012357600080fd5b5061012c610cd6565b6040518080602001828103825283818151815260200191508051906020019060200280838360005b8381101561016f578082015181840152602081019050610154565b505050509050019250505060405180910390f35b34801561018f57600080fd5b50610198610d64565b6040518080602001828103825283818151815260200191508051906020019060200280838360005b838110156101db5780820151818401526020810190506101c0565b505050509050019250505060405180910390f35b6101f7610df2565b005b34801561020557600080fd5b5061020e610f13565b6040518082815260200191505060405180910390f35b34801561023057600080fd5b5061025d6004803603602081101561024757600080fd5b8101908080359060200190929190505050610f19565b604051808273ffffffffffffffffffffffffffffffffffffffff1673ffffffffffffffffffffffffffffffffffffffff16815260200191505060405180910390f35b3480156102ab57600080fd5b50610365600480360360208110156102c257600080fd5b81019080803590602001906401000000008111156102df57600080fd5b8201836020820111156102f157600080fd5b8035906020019184600183028401116401000000008311171561031357600080fd5b91908080601f016020809104026020016040519081016040528093929190818152602001838380828437600081840152601f19601f820116905080830192505050505050509192919290505050610f57565b005b34801561037357600080fd5b506103b66004803603602081101561038a57600080fd5b81019080803573ffffffffffffffffffffffffffffffffffffffff169060200190929190505050610f71565b6040518082815260200191505060405180910390f35b3480156103d857600080fd5b506105e0600480360360808110156103ef57600080fd5b81019080803573ffffffffffffffffffffffffffffffffffffffff1690602001909291908035906020019064010000000081111561042c57600080fd5b82018360208201111561043e57600080fd5b8035906020019184600183028401116401000000008311171561046057600080fd5b91908080601f016020809104026020016040519081016040528093929190818152602001838380828437600081840152601f19601f820116905080830192505050505050509192919290803590602001906401000000008111156104c357600080fd5b8201836020820111156104d557600080fd5b803590602001918460018302840111640100000000831117156104f757600080fd5b91908080601f016020809104026020016040519081016040528093929190818152602001838380828437600081840152601f19601f8201169050808301925050505050505091929192908035906020019064010000000081111561055a57600080fd5b82018360208201111561056c57600080fd5b8035906020019184600183028401116401000000008311171561058e57600080fd5b91908080601f016020809104026020016040519081016040528093929190818152602001838380828437600081840152601f19601f820116905080830192505050505050509192919290505050611070565b005b3480156105ee57600080fd5b5061063b6004803603604081101561060557600080fd5b81019080803573ffffffffffffffffffffffffffffffffffffffff1690602001909291908035906020019092919050505061130a565b6040518080602001828103825283818151815260200191508051906020019080838360005b8381101561067b578082015181840152602081019050610660565b50505050905090810190601f1680156106a85780820380516001836020036101000a031916815260200191505b509250505060405180910390f35b3480156106c257600080fd5b506106cb611406565b6040518080602001828103825283818151815260200191508051906020019080838360005b8381101561070b5780820151818401526020810190506106f0565b50505050905090810190601f1680156107385780820380516001836020036101000a031916815260200191505b509250505060405180910390f35b34801561075257600080fd5b5061082c6004803603604081101561076957600080fd5b81019080803573ffffffffffffffffffffffffffffffffffffffff169060200190929190803590602001906401000000008111156107a657600080fd5b8201836020820111156107b857600080fd5b803590602001918460018302840111640100000000831117156107da57600080fd5b91908080601f016020809104026020016040519081016040528093929190818152602001838380828437600081840152601f19601f8201169050808301925050505050505091929192905050506114a8565b005b6108706004803603602081101561084457600080fd5b81019080803573ffffffffffffffffffffffffffffffffffffffff16906020019092919050505061156c565b005b34801561087e57600080fd5b506108cb6004803603604081101561089557600080fd5b81019080803573ffffffffffffffffffffffffffffffffffffffff1690602001909291908035906020019092919050505061168e565b6040518080602001828103825283818151815260200191508051906020019080838360005b8381101561090b5780820151818401526020810190506108f0565b50505050905090810190601f1680156109385780820380516001836020036101000a031916815260200191505b509250505060405180910390f35b34801561095257600080fd5b5061095b61178a565b6040518080602001828103825283818151815260200191508051906020019080838360005b8381101561099b578082015181840152602081019050610980565b50505050905090810190601f1680156109c85780820380516001836020036101000a031916815260200191505b509250505060405180910390f35b3480156109e257600080fd5b50610a2f600480360360408110156109f957600080fd5b81019080803573ffffffffffffffffffffffffffffffffffffffff1690602001909291908035906020019092919050505061182c565b6040518080602001828103825283818151815260200191508051906020019080838360005b83811015610a6f578082015181840152602081019050610a54565b50505050905090810190601f168015610a9c5780820380516001836020036101000a031916815260200191505b509250505060405180910390f35b348015610ab657600080fd5b50610abf611928565b6040518082815260200191505060405180910390f35b348015610ae157600080fd5b50610aea611a25565b604051808273ffffffffffffffffffffffffffffffffffffffff1673ffffffffffffffffffffffffffffffffffffffff16815260200191505060405180910390f35b348015610b3857600080fd5b50610b7b60048036036020811015610b4f57600080fd5b81019080803573ffffffffffffffffffffffffffffffffffffffff169060200190929190505050611a4b565b6040518080602001828103825283818151815260200191508051906020019080838360005b83811015610bbb578082015181840152602081019050610ba0565b50505050905090810190601f168015610be85780820380516001836020036101000a031916815260200191505b509250505060405180910390f35b348015610c0257600080fd5b50610c2f60048036036020811015610c1957600080fd5b8101908080359060200190929190505050611b2f565b604051808273ffffffffffffffffffffffffffffffffffffffff1673ffffffffffffffffffffffffffffffffffffffff16815260200191505060405180910390f35b348015610c7d57600080fd5b50610cc060048036036020811015610c9457600080fd5b81019080803573ffffffffffffffffffffffffffffffffffffffff169060200190929190505050611b6d565b6040518082815260200191505060405180910390f35b60606007805480602002602001604051908101604052809291908181526020018280548015610d5a57602002820191906000526020600020905b8160009054906101000a900473ffffffffffffffffffffffffffffffffffffffff1673ffffffffffffffffffffffffffffffffffffffff1681526020019060010190808311610d10575b5050505050905090565b60606003805480602002602001604051908101604052809291908181526020018280548015610de857602002820191906000526020600020905b8160009054906101000a900473ffffffffffffffffffffffffffffffffffffffff1673ffffffffffffffffffffffffffffffffffffffff1681526020019060010190808311610d9e575b5050505050905090565b600460009054906101000a900473ffffffffffffffffffffffffffffffffffffffff1673ffffffffffffffffffffffffffffffffffffffff166340c10f19336005546040518363ffffffff167c0100000000000000000000000000000000000000000000000000000000028152600401808373ffffffffffffffffffffffffffffffffffffffff1673ffffffffffffffffffffffffffffffffffffffff16815260200182815260200192505050602060405180830381600087803b158015610eb957600080fd5b505af1158015610ecd573d6000803e3d6000fd5b505050506040513d6020811015610ee357600080fd5b81019080805190602001909291905050501515610eff57600080fd5b600560008154809291906001019190505550565b60055481565b600781815481101515610f2857fe5b906000526020600020016000915054906101000a900473ffffffffffffffffffffffffffffffffffffffff1681565b8060009080519060200190610f6d929190611bbc565b5050565b6000600460009054906101000a900473ffffffffffffffffffffffffffffffffffffffff1673ffffffffffffffffffffffffffffffffffffffff166370a08231836040518263ffffffff167c0100000000000000000000000000000000000000000000000000000000028152600401808273ffffffffffffffffffffffffffffffffffffffff1673ffffffffffffffffffffffffffffffffffffffff16815260200191505060206040518083038186803b15801561102e57600080fd5b505afa158015611042573d6000803e3d6000fd5b505050506040513d602081101561105857600080fd5b81019080805190602001909291905050509050919050565b6001600660008673ffffffffffffffffffffffffffffffffffffffff1673ffffffffffffffffffffffffffffffffffffffff1681526020019081526020016000206000018490806001815401808255809150509060018203906000526020600020016000909192909190915090805190602001906110ef929190611bbc565b5050506001600660008673ffffffffffffffffffffffffffffffffffffffff1673ffffffffffffffffffffffffffffffffffffffff168152602001908152602001600020600101839080600181540180825580915050906001820390600052602060002001600090919290919091509080519060200190611171929190611bbc565b5050506001600660008673ffffffffffffffffffffffffffffffffffffffff1673ffffffffffffffffffffffffffffffffffffffff1681526020019081526020016000206002018290806001815401808255809150509060018203906000526020600020016000909192909190915090805190602001906111f3929190611bbc565b505050600080905060008090505b600780549050811015611291578573ffffffffffffffffffffffffffffffffffffffff1660078281548110151561123457fe5b9060005260206000200160009054906101000a900473ffffffffffffffffffffffffffffffffffffffff1673ffffffffffffffffffffffffffffffffffffffff1614156112845760019150611291565b8080600101915050611201565b5080151561130357600160078690806001815401808255809150509060018203906000526020600020016000909192909190916101000a81548173ffffffffffffffffffffffffffffffffffffffff021916908373ffffffffffffffffffffffffffffffffffffffff16021790555050505b5050505050565b6060600660008473ffffffffffffffffffffffffffffffffffffffff1673ffffffffffffffffffffffffffffffffffffffff1681526020019081526020016000206001018281548110151561135b57fe5b906000526020600020018054600181600116156101000203166002900480601f0160208091040260200160405190810160405280929190818152602001828054600181600116156101000203166002900480156113f95780601f106113ce576101008083540402835291602001916113f9565b820191906000526020600020905b8154815290600101906020018083116113dc57829003601f168201915b5050505050905092915050565b606060008054600181600116156101000203166002900480601f01602080910402602001604051908101604052809291908181526020018280546001816001161561010002031660029004801561149e5780601f106114735761010080835404028352916020019161149e565b820191906000526020600020905b81548152906001019060200180831161148157829003601f168201915b5050505050905090565b80600260008473ffffffffffffffffffffffffffffffffffffffff1673ffffffffffffffffffffffffffffffffffffffff16815260200190815260200160002060000190805190602001906114fe929190611bbc565b50600160038390806001815401808255809150509060018203906000526020600020016000909192909190916101000a81548173ffffffffffffffffffffffffffffffffffffffff021916908373ffffffffffffffffffffffffffffffffffffffff16021790555050505050565b600460009054906101000a900473ffffffffffffffffffffffffffffffffffffffff1673ffffffffffffffffffffffffffffffffffffffff166340c10f19826005546040518363ffffffff167c0100000000000000000000000000000000000000000000000000000000028152600401808373ffffffffffffffffffffffffffffffffffffffff1673ffffffffffffffffffffffffffffffffffffffff16815260200182815260200192505050602060405180830381600087803b15801561163357600080fd5b505af1158015611647573d6000803e3d6000fd5b505050506040513d602081101561165d57600080fd5b8101908080519060200190929190505050151561167957600080fd5b60056000815480929190600101919050555050565b6060600660008473ffffffffffffffffffffffffffffffffffffffff1673ffffffffffffffffffffffffffffffffffffffff168152602001908152602001600020600201828154811015156116df57fe5b906000526020600020018054600181600116156101000203166002900480601f01602080910402602001604051908101604052809291908181526020018280546001816001161561010002031660029004801561177d5780601f106117525761010080835404028352916020019161177d565b820191906000526020600020905b81548152906001019060200180831161176057829003601f168201915b5050505050905092915050565b606060018054600181600116156101000203166002900480601f0160208091040260200160405190810160405280929190818152602001828054600181600116156101000203166002900480156118225780601f106117f757610100808354040283529160200191611822565b820191906000526020600020905b81548152906001019060200180831161180557829003601f168201915b5050505050905090565b6060600660008473ffffffffffffffffffffffffffffffffffffffff1673ffffffffffffffffffffffffffffffffffffffff1681526020019081526020016000206000018281548110151561187d57fe5b906000526020600020018054600181600116156101000203166002900480601f01602080910402602001604051908101604052809291908181526020018280546001816001161561010002031660029004801561191b5780601f106118f05761010080835404028352916020019161191b565b820191906000526020600020905b8154815290600101906020018083116118fe57829003601f168201915b5050505050905092915050565b6000600460009054906101000a900473ffffffffffffffffffffffffffffffffffffffff1673ffffffffffffffffffffffffffffffffffffffff166370a08231336040518263ffffffff167c0100000000000000000000000000000000000000000000000000000000028152600401808273ffffffffffffffffffffffffffffffffffffffff1673ffffffffffffffffffffffffffffffffffffffff16815260200191505060206040518083038186803b1580156119e557600080fd5b505afa1580156119f9573d6000803e3d6000fd5b505050506040513d6020811015611a0f57600080fd5b8101908080519060200190929190505050905090565b600460009054906101000a900473ffffffffffffffffffffffffffffffffffffffff1681565b6060600260008373ffffffffffffffffffffffffffffffffffffffff1673ffffffffffffffffffffffffffffffffffffffff1681526020019081526020016000206000018054600181600116156101000203166002900480601f016020809104026020016040519081016040528092919081815260200182805460018160011615610100020316600290048015611b235780601f10611af857610100808354040283529160200191611b23565b820191906000526020600020905b815481529060010190602001808311611b0657829003601f168201915b50505050509050919050565b600381815481101515611b3e57fe5b906000526020600020016000915054906101000a900473ffffffffffffffffffffffffffffffffffffffff1681565b6000600660008373ffffffffffffffffffffffffffffffffffffffff1673ffffffffffffffffffffffffffffffffffffffff168152602001908152602001600020600001805490509050919050565b828054600181600116156101000203166002900490600052602060002090601f016020900481019282601f10611bfd57805160ff1916838001178555611c2b565b82800160010185558215611c2b579182015b82811115611c2a578251825591602001919060010190611c0f565b5b509050611c389190611c3c565b5090565b611c5e91905b80821115611c5a576000816000905550600101611c42565b5090565b9056fea165627a7a72305820fb1934130b4ebe780dfd165578404ccd43812f9cc8a389454907185ba31b073e0029",
  "source": "pragma solidity >=0.4.21 <0.6.0;\n//This is the solidity file to edit and use. You must migrate then copy the\n//relavent json file in build/contracts to the client folder. Copy into client/src/contracts directory\n\nimport './MyToken.sol';\n\ncontract SimpleStorage {\n  string ipfsHash;\n  string answerss = \"QmW2WQi7j6c7UgJTarActp7tDNikE4B2qXtFCfLPdsgaTQ/cat.jpg\";\n\n  struct Image {\n    string imageHash;   //Can we check if this is an img file?\n    string title;\n    string coverHash;   //Change this to contentsHash?\n  }\n\n  mapping (address => Image) images;\n  address[] public imageAccounts;\n\n  struct Book {\n    //Can use the length of array to find max index length for front end navigation\n    string[] bookHash;\n    string[] bookTitle;\n    string[] contents;\n  }\n\n  //The ERC721 token\n  MyToken public myToken;\n  uint256 public tokenId;\n\n\n  mapping (address => Book) books;\n  address[] public bookAccounts;\n\n\n  /* function addBook(address _address, string memory _bookHash)public{\n    //var book = books[_address];\n\n    books[_address].bookHash.push(_bookHash) -1; //Do I need the -1???\n    //Add the title, and cover later...\n\n\n\n    bookAccounts.push(_address) -1;\n  } */\n\n\n  constructor (MyToken _myToken) public {\n    myToken = _myToken;\n    tokenId=0;\n  }\n\n  function buyOneToken() public payable {\n    require(myToken.mint(msg.sender, tokenId));\n    tokenId++;\n  }\n\n  function accountBalance() view public returns(uint256){\n    return myToken.balanceOf(msg.sender);\n  }\n\n  //Checks balance of account that isn't msg.sender\n  function accountBalanceManual(address _address) view public returns(uint256){\n    return myToken.balanceOf(_address);\n  }\n\n  //Mints a token to another address\n  function giveLike(address _to) public payable{\n    require(myToken.mint(_to, tokenId));\n    tokenId++;\n  }\n\n\n\n  //Function that imitates above, but adds the title and contents\n  function addBookReport(address _address, string memory _bookHash, string memory\n    _bookTitle, string memory _contents) public {\n\n      books[_address].bookHash.push(_bookHash) -1;    //This is the image\n      //Can we limit size of string???\n      books[_address].bookTitle.push(_bookTitle) -1;  //Should title also be stored via IPFS?\n      books[_address].contents.push(_contents) -1;  //Should contents be stored via IPFS?\n\n      //Iterate through array to check if address exists. If not, push to array.\n      bool bookAdded = false;\n      for(uint i=0; i<bookAccounts.length; i++){\n        if(bookAccounts[i] == _address){\n          bookAdded = true;\n          break;\n        }\n      }\n\n      if(!bookAdded){\n        bookAccounts.push(_address) -1;\n      }\n    }\n\n    //Return array of bookAccounts. In future, should partition array in cycles\n    //Reads from blockchain are free. Perhaps should just reed the public array..\n    function getBookAccounts() public view returns(address[] memory){\n      return bookAccounts;\n    }\n\n\n\n    function getTitle(address _address, uint i) view public returns(string memory){\n      return books[_address].bookTitle[i];\n    }\n\n    function getContents(address _address, uint i) view public returns(string memory){\n      return books[_address].contents[i];\n    }\n\n\n\n\n\n  function getBook(address _address, uint i) view public returns(string memory){\n    return books[_address].bookHash[i];\n  }\n\n  //Get length of bookHash array. Used for frontend navigation between all the files\n  function getLength(address _address) view public returns(uint256){\n    return books[_address].bookHash.length;\n  }\n\n\n  //****************************************\n\n\n  function setImage(address _address, string memory _imageHash) public {\n    //var image = images[_address];\n\n    images[_address].imageHash = _imageHash;\n\n    imageAccounts.push(_address) -1;\n  }\n\n  function getImages() view public returns(address[] memory) {\n    return imageAccounts;\n  }\n\n\n  function getImage(address _address) view public returns(string memory){\n    return images[_address].imageHash;\n  }\n\n  function set(string memory x) public {\n    ipfsHash = x;\n    //ipfsHash = \"QmW2WQi7j6c7UgJTarActp7tDNikE4B2qXtFCfLPdsgaTQ/cat.jpg\";\n  }\n\n  function get() public view returns (string memory) {\n\n    return ipfsHash;\n  }\n\n  function getTest() public view returns (string memory) {\n\n    return answerss;\n  }\n}\n",
  "sourcePath": "D:/COMP495/2_ipfs_image_uploader/contracts/SimpleStorage.sol",
  "compiler": {
    "name": "solc",
    "version": "0.5.0+commit.1d4f565a.Emscripten.clang"
  },
  "schemaVersion": "3.0.1",
  "updatedAt": "2019-01-22T03:22:58.329Z",
  "devdoc": {
    "methods": {}
  },
  "userdoc": {
    "methods": {}
  }
}